{
  "address": "0x6d33d2769E9a4E108bDE18De5d7706EDF65D53F9",
  "abi": [
    {
      "anonymous": false,
      "inputs": [
        {
          "indexed": false,
          "internalType": "uint256",
          "name": "projectId",
          "type": "uint256"
        },
        {
          "indexed": false,
          "internalType": "address",
          "name": "selectedBidder",
          "type": "address"
        }
      ],
      "name": "BidSelected",
      "type": "event"
    },
    {
      "anonymous": false,
      "inputs": [
        {
          "indexed": false,
          "internalType": "uint256",
          "name": "bidId",
          "type": "uint256"
        },
        {
          "indexed": false,
          "internalType": "uint256",
          "name": "projectId",
          "type": "uint256"
        },
        {
          "indexed": false,
          "internalType": "address",
          "name": "bidder",
          "type": "address"
        },
        {
          "indexed": false,
          "internalType": "uint256",
          "name": "bidAmount",
          "type": "uint256"
        },
        {
          "indexed": false,
          "internalType": "uint256",
          "name": "completionTime",
          "type": "uint256"
        }
      ],
      "name": "BidSubmitted",
      "type": "event"
    },
    {
      "anonymous": false,
      "inputs": [
        {
          "indexed": false,
          "internalType": "uint256",
          "name": "disputeId",
          "type": "uint256"
        },
        {
          "indexed": false,
          "internalType": "uint256",
          "name": "projectId",
          "type": "uint256"
        },
        {
          "indexed": false,
          "internalType": "address",
          "name": "disputant",
          "type": "address"
        },
        {
          "indexed": false,
          "internalType": "string",
          "name": "reason",
          "type": "string"
        }
      ],
      "name": "DisputeRaised",
      "type": "event"
    },
    {
      "anonymous": false,
      "inputs": [
        {
          "indexed": false,
          "internalType": "uint256",
          "name": "disputeId",
          "type": "uint256"
        },
        {
          "indexed": false,
          "internalType": "bool",
          "name": "result",
          "type": "bool"
        }
      ],
      "name": "DisputeResolved",
      "type": "event"
    },
    {
      "anonymous": false,
      "inputs": [
        {
          "indexed": false,
          "internalType": "uint256",
          "name": "projectId",
          "type": "uint256"
        },
        {
          "indexed": false,
          "internalType": "uint256",
          "name": "milestoneIndex",
          "type": "uint256"
        }
      ],
      "name": "MilestonePaid",
      "type": "event"
    },
    {
      "anonymous": false,
      "inputs": [
        {
          "indexed": false,
          "internalType": "uint256",
          "name": "projectId",
          "type": "uint256"
        },
        {
          "indexed": false,
          "internalType": "address",
          "name": "owner",
          "type": "address"
        },
        {
          "indexed": false,
          "internalType": "string",
          "name": "description",
          "type": "string"
        },
        {
          "indexed": false,
          "internalType": "uint256",
          "name": "budget",
          "type": "uint256"
        },
        {
          "indexed": false,
          "internalType": "uint256",
          "name": "deadline",
          "type": "uint256"
        }
      ],
      "name": "ProjectPosted",
      "type": "event"
    },
    {
      "inputs": [],
      "name": "bidCount",
      "outputs": [
        {
          "internalType": "uint256",
          "name": "",
          "type": "uint256"
        }
      ],
      "stateMutability": "view",
      "type": "function"
    },
    {
      "inputs": [
        {
          "internalType": "uint256",
          "name": "",
          "type": "uint256"
        },
        {
          "internalType": "uint256",
          "name": "",
          "type": "uint256"
        }
      ],
      "name": "bids",
      "outputs": [
        {
          "internalType": "uint256",
          "name": "projectId",
          "type": "uint256"
        },
        {
          "internalType": "address",
          "name": "bidder",
          "type": "address"
        },
        {
          "internalType": "uint256",
          "name": "bidAmount",
          "type": "uint256"
        },
        {
          "internalType": "uint256",
          "name": "completionTime",
          "type": "uint256"
        },
        {
          "internalType": "bool",
          "name": "selected",
          "type": "bool"
        }
      ],
      "stateMutability": "view",
      "type": "function"
    },
    {
      "inputs": [],
      "name": "disputeCount",
      "outputs": [
        {
          "internalType": "uint256",
          "name": "",
          "type": "uint256"
        }
      ],
      "stateMutability": "view",
      "type": "function"
    },
    {
      "inputs": [
        {
          "internalType": "uint256",
          "name": "",
          "type": "uint256"
        }
      ],
      "name": "disputes",
      "outputs": [
        {
          "internalType": "uint256",
          "name": "projectId",
          "type": "uint256"
        },
        {
          "internalType": "address",
          "name": "disputant",
          "type": "address"
        },
        {
          "internalType": "string",
          "name": "reason",
          "type": "string"
        },
        {
          "internalType": "uint256",
          "name": "yesVotes",
          "type": "uint256"
        },
        {
          "internalType": "uint256",
          "name": "noVotes",
          "type": "uint256"
        },
        {
          "internalType": "bool",
          "name": "resolved",
          "type": "bool"
        }
      ],
      "stateMutability": "view",
      "type": "function"
    },
    {
      "inputs": [],
      "name": "fetchProjects",
      "outputs": [
        {
          "components": [
            {
              "internalType": "uint256",
              "name": "id",
              "type": "uint256"
            },
            {
              "internalType": "address",
              "name": "owner",
              "type": "address"
            },
            {
              "internalType": "string",
              "name": "description",
              "type": "string"
            },
            {
              "internalType": "uint256",
              "name": "budget",
              "type": "uint256"
            },
            {
              "internalType": "uint256",
              "name": "deadline",
              "type": "uint256"
            },
            {
              "internalType": "bool",
              "name": "active",
              "type": "bool"
            },
            {
              "internalType": "address",
              "name": "selectedBidder",
              "type": "address"
            },
            {
              "internalType": "uint256[]",
              "name": "milestones",
              "type": "uint256[]"
            },
            {
              "internalType": "bool[]",
              "name": "milestonePaid",
              "type": "bool[]"
            },
            {
              "internalType": "bool",
              "name": "disputeRaised",
              "type": "bool"
            },
            {
              "internalType": "uint256",
              "name": "selectedBidIndex",
              "type": "uint256"
            }
          ],
          "internalType": "struct DesignBuildBid.Project[]",
          "name": "",
          "type": "tuple[]"
        }
      ],
      "stateMutability": "view",
      "type": "function"
    },
    {
      "inputs": [
        {
          "internalType": "string",
          "name": "_description",
          "type": "string"
        },
        {
          "internalType": "uint256",
          "name": "_budget",
          "type": "uint256"
        },
        {
          "internalType": "uint256",
          "name": "_deadline",
          "type": "uint256"
        },
        {
          "internalType": "uint256[]",
          "name": "_milestones",
          "type": "uint256[]"
        }
      ],
      "name": "postProject",
      "outputs": [],
      "stateMutability": "nonpayable",
      "type": "function"
    },
    {
      "inputs": [],
      "name": "projectCount",
      "outputs": [
        {
          "internalType": "uint256",
          "name": "",
          "type": "uint256"
        }
      ],
      "stateMutability": "view",
      "type": "function"
    },
    {
      "inputs": [
        {
          "internalType": "uint256",
          "name": "",
          "type": "uint256"
        }
      ],
      "name": "projects",
      "outputs": [
        {
          "internalType": "uint256",
          "name": "id",
          "type": "uint256"
        },
        {
          "internalType": "address",
          "name": "owner",
          "type": "address"
        },
        {
          "internalType": "string",
          "name": "description",
          "type": "string"
        },
        {
          "internalType": "uint256",
          "name": "budget",
          "type": "uint256"
        },
        {
          "internalType": "uint256",
          "name": "deadline",
          "type": "uint256"
        },
        {
          "internalType": "bool",
          "name": "active",
          "type": "bool"
        },
        {
          "internalType": "address",
          "name": "selectedBidder",
          "type": "address"
        },
        {
          "internalType": "bool",
          "name": "disputeRaised",
          "type": "bool"
        },
        {
          "internalType": "uint256",
          "name": "selectedBidIndex",
          "type": "uint256"
        }
      ],
      "stateMutability": "view",
      "type": "function"
    },
    {
      "inputs": [
        {
          "internalType": "uint256",
          "name": "_projectId",
          "type": "uint256"
        },
        {
          "internalType": "string",
          "name": "_reason",
          "type": "string"
        }
      ],
      "name": "raiseDispute",
      "outputs": [],
      "stateMutability": "nonpayable",
      "type": "function"
    },
    {
      "inputs": [
        {
          "internalType": "uint256",
          "name": "_projectId",
          "type": "uint256"
        },
        {
          "internalType": "uint256",
          "name": "_milestoneIndex",
          "type": "uint256"
        }
      ],
      "name": "releaseMilestonePayment",
      "outputs": [],
      "stateMutability": "nonpayable",
      "type": "function"
    },
    {
      "inputs": [
        {
          "internalType": "uint256",
          "name": "_projectId",
          "type": "uint256"
        },
        {
          "internalType": "uint256",
          "name": "_bidIndex",
          "type": "uint256"
        }
      ],
      "name": "selectBid",
      "outputs": [],
      "stateMutability": "nonpayable",
      "type": "function"
    },
    {
      "inputs": [
        {
          "internalType": "uint256",
          "name": "_projectId",
          "type": "uint256"
        },
        {
          "internalType": "uint256",
          "name": "_bidAmount",
          "type": "uint256"
        },
        {
          "internalType": "uint256",
          "name": "_completionTime",
          "type": "uint256"
        },
        {
          "internalType": "uint256[]",
          "name": "_proposedMilestones",
          "type": "uint256[]"
        }
      ],
      "name": "submitBid",
      "outputs": [],
      "stateMutability": "nonpayable",
      "type": "function"
    },
    {
      "inputs": [
        {
          "internalType": "uint256",
          "name": "_disputeId",
          "type": "uint256"
        },
        {
          "internalType": "bool",
          "name": "_vote",
          "type": "bool"
        }
      ],
      "name": "voteOnDispute",
      "outputs": [],
      "stateMutability": "nonpayable",
      "type": "function"
    },
    {
      "stateMutability": "payable",
      "type": "receive"
    }
  ],
  "transactionHash": "0x2937a80e44c5fd11c1848e340b8089a2f7357d05791452c880dc791e908ef8b7",
  "args": [],
  "numDeployments": 2,
  "solcInputHash": "02c5c28e97f29be9d8df106283f56142",
  "bytecode": "0x608060405234801561001057600080fd5b50611e84806100206000396000f3fe6080604052600436106100c65760003560e01c806389cf8a491161007f578063a4f5df1211610059578063a4f5df1214610252578063b40a562714610272578063ca41222c14610288578063d6f5f120146102a857600080fd5b806389cf8a49146101fa5780638c936e651461021c578063a28889e11461023c57600080fd5b80630fe5f7c0146100d2578063107046bd146100f457806336fbad2614610132578063564a565d146101565780635aef573c146101885780637b3c4baa146101a857600080fd5b366100cd57005b600080fd5b3480156100de57600080fd5b506100f26100ed366004611783565b6102c8565b005b34801561010057600080fd5b5061011461010f3660046117dd565b6104ad565b6040516101299998979695949392919061183c565b60405180910390f35b34801561013e57600080fd5b5061014860005481565b604051908152602001610129565b34801561016257600080fd5b506101766101713660046117dd565b610599565b6040516101299695949392919061189f565b34801561019457600080fd5b506100f26101a3366004611959565b610665565b3480156101b457600080fd5b506101c86101c33660046119a0565b610800565b604080519586526001600160a01b0390941660208601529284019190915260608301521515608082015260a001610129565b34801561020657600080fd5b5061020f61085b565b6040516101299190611a2f565b34801561022857600080fd5b506100f26102373660046119a0565b610b61565b34801561024857600080fd5b5061014860025481565b34801561025e57600080fd5b506100f261026d366004611b4a565b610ebf565b34801561027e57600080fd5b5061014860015481565b34801561029457600080fd5b506100f26102a3366004611b7f565b6110a9565b3480156102b457600080fd5b506100f26102c33660046119a0565b6112fc565b60008481526003602052604090206005015460ff166103265760405162461bcd60e51b815260206004820152601560248201527450726f6a656374206973206e6f742061637469766560581b60448201526064015b60405180910390fd5b6000848152600360205260409020600601548151146103875760405162461bcd60e51b815260206004820152601960248201527f4d696c6573746f6e657320636f756e74206d69736d6174636800000000000000604482015260640161031d565b6001805490600061039783611c00565b90915550506000848152600460208181526040808420815160c08101835289815233818501908152928101898152606082018981526080830189815260a08401899052845460018082018755958a529887902084516006909a0201988955945193880180546001600160a01b0319166001600160a01b0390951694909417909355516002870155905160038601559051805191949361043c93908501929101906115c0565b5060a0918201516005909101805460ff19169115159190911790556001546040805191825260208201879052339082015260608101859052608081018490527fbdfcb6ed10473990c43d94b0d61dbc59818d6a21583ff27de888bc74a6f3c2ec91015b60405180910390a150505050565b60036020526000908152604090208054600182015460028301805492936001600160a01b03909216926104df90611c19565b80601f016020809104026020016040519081016040528092919081815260200182805461050b90611c19565b80156105585780601f1061052d57610100808354040283529160200191610558565b820191906000526020600020905b81548152906001019060200180831161053b57829003601f168201915b5050505060038301546004840154600585015460088601546009909601549495929491935060ff808216936101009092046001600160a01b03169291169089565b60056020526000908152604090208054600182015460028301805492936001600160a01b03909216926105cb90611c19565b80601f01602080910402602001604051908101604052809291908181526020018280546105f790611c19565b80156106445780601f1061061957610100808354040283529160200191610644565b820191906000526020600020905b81548152906001019060200180831161062757829003601f168201915b50505050600483015460058401546006909401549293909290915060ff1686565b600082815260036020526040902060050154829061010090046001600160a01b031633146106ee5760405162461bcd60e51b815260206004820152603060248201527f4f6e6c79207468652073656c6563746564206269646465722063616e2070657260448201526f3337b936903a3434b99030b1ba34b7b760811b606482015260840161031d565b60008381526003602052604090206008015460ff16156107605760405162461bcd60e51b815260206004820152602760248201527f4469737075746520616c72656164792072616973656420666f722074686973206044820152661c1c9bda9958dd60ca1b606482015260840161031d565b6002805490600061077083611c00565b90915550506002805460009081526005602052604090208481556001810180546001600160a01b031916331790559081016107ab8482611c9c565b5060008481526003602052604090819020600801805460ff1916600117905560025490517f23c31c3c42269d2f1541faecb93f9273532cfaa63b3b9cb5ab733358ac289e3b9161049f91879033908890611d5c565b6004602052816000526040600020818154811061081c57600080fd5b6000918252602090912060069091020180546001820154600283015460038401546005909401549295506001600160a01b039091169350919060ff1685565b60606000805467ffffffffffffffff811115610879576108796116bc565b60405190808252806020026020018201604052801561091d57816020015b61090a6040518061016001604052806000815260200160006001600160a01b0316815260200160608152602001600081526020016000815260200160001515815260200160006001600160a01b031681526020016060815260200160608152602001600015158152602001600081525090565b8152602001906001900390816108975790505b50905060015b6000548111610b5b576000818152600360209081526040918290208251610160810184528154815260018201546001600160a01b031692810192909252600281018054929391929184019161097790611c19565b80601f01602080910402602001604051908101604052809291908181526020018280546109a390611c19565b80156109f05780601f106109c5576101008083540402835291602001916109f0565b820191906000526020600020905b8154815290600101906020018083116109d357829003601f168201915b505050918352505060038201546020808301919091526004830154604080840191909152600584015460ff81161515606085015261010090046001600160a01b0316608084015260068401805482518185028101850190935280835260a0909401939192909190830182828015610a8657602002820191906000526020600020905b815481526020019060010190808311610a72575b5050505050815260200160078201805480602002602001604051908101604052809291908181526020018280548015610afe57602002820191906000526020600020906000905b825461010083900a900460ff161515815260206001928301818104948501949093039092029101808411610acd5790505b5050509183525050600882015460ff161515602082015260099091015460409091015282610b2d600184611d93565b81518110610b3d57610b3d611dac565b60200260200101819052508080610b5390611c00565b915050610923565b50919050565b60008281526003602052604090206001015482906001600160a01b03163314610b9c5760405162461bcd60e51b815260040161031d90611dc2565b60008381526003602052604090206005015461010090046001600160a01b0316610bfa5760405162461bcd60e51b815260206004820152600f60248201526e139bc8189a59081cd95b1958dd1959608a1b604482015260640161031d565b6000838152600360205260409020600701805483908110610c1d57610c1d611dac565b90600052602060002090602091828204019190069054906101000a900460ff1615610c835760405162461bcd60e51b8152602060048201526016602482015275135a5b195cdd1bdb9948185b1c9958591e481c185a5960521b604482015260640161031d565b6000838152600360205260409020600601548210610ce35760405162461bcd60e51b815260206004820152601760248201527f496e76616c6964206d696c6573746f6e6520696e646578000000000000000000604482015260640161031d565b60008381526003602052604090206008015460ff1615610d535760405162461bcd60e51b815260206004820152602560248201527f43616e6e6f742072656c65617365207061796d656e7420647572696e67206469604482015264737075746560d81b606482015260840161031d565b6000838152600360205260408120600601805484908110610d7657610d76611dac565b906000526020600020015490506001600360008681526020019081526020016000206007018481548110610dac57610dac611dac565b60009182526020808320818304018054941515601f90931661010090810a93840260ff909402199095169290921790915586825260039052604080822060050154905191926001600160a01b039104169083908381818185875af1925050503d8060008114610e37576040519150601f19603f3d011682016040523d82523d6000602084013e610e3c565b606091505b5050905080610e7f5760405162461bcd60e51b815260206004820152600f60248201526e151c985b9cd9995c8819985a5b1959608a1b604482015260640161031d565b60408051868152602081018690527f3af368126e502abc57fe61217a2e2ffc37e0753a9bc218ab9976a49a996e4449910160405180910390a15050505050565b60008281526005602052604090206006015460ff1615610f215760405162461bcd60e51b815260206004820152601860248201527f4469737075746520616c7265616479207265736f6c7665640000000000000000604482015260640161031d565b600082815260056020908152604080832033845260030190915290205460ff1615610f9d5760405162461bcd60e51b815260206004820152602660248201527f596f75206861766520616c726561647920766f746564206f6e2074686973206460448201526569737075746560d01b606482015260840161031d565b60008281526005602090815260408083203384526003019091529020805460ff191660011790558015610ff1576000828152600560205260408120600401805491610fe783611c00565b9190505550611014565b600082815260056020819052604082200180549161100e83611c00565b91905055505b6000828152600560208190526040909120908101546004909101541115611063576000828152600560205260409020600601805460ff1916600190811790915561105f908390611561565b5050565b60008281526005602081905260409091206004810154910154111561105f576000828152600560205260408120600601805460ff1916600117905561105f908390611561565b60008151116111065760405162461bcd60e51b8152602060048201526024808201527f5468657265206d757374206265206174206c65617374206f6e65206d696c6573604482015263746f6e6560e01b606482015260840161031d565b60008054908061111583611c00565b91905055506040518061016001604052806000548152602001336001600160a01b0316815260200185815260200184815260200183815260200160011515815260200160006001600160a01b03168152602001828152602001825167ffffffffffffffff811115611188576111886116bc565b6040519080825280602002602001820160405280156111b1578160200160208202803683370190505b50815260006020808301829052604092830182905281548252600381529082902083518155908301516001820180546001600160a01b0319166001600160a01b0390921691909117905590820151600282019061120e9082611c9c565b50606082015160038201556080820151600482015560a082015160058201805460c08501516001600160a01b031661010002610100600160a81b0319931515939093166001600160a81b03199091161791909117905560e0820151805161127f9160068401916020909101906115c0565b50610100820151805161129c91600784019160209091019061160b565b5061012082015160088201805460ff1916911515919091179055610140909101516009909101556000546040517fcac535a9bcf7cb249f2e995ffbf4e8b3f0eb137c80b35cf2c9bb39c671c5b5e09161049f913390889088908890611e10565b60008281526003602052604090206001015482906001600160a01b031633146113375760405162461bcd60e51b815260040161031d90611dc2565b600083815260046020526040812080548490811061135757611357611dac565b60009182526020909120600160069092020101546001600160a01b0316036113b65760405162461bcd60e51b8152602060048201526012602482015271109a5908191bd95cc81b9bdd08195e1a5cdd60721b604482015260640161031d565b60008381526003602052604090206008015460ff16156114185760405162461bcd60e51b815260206004820181905260248201527f43616e6e6f742073656c6563742062696420647572696e672064697370757465604482015260640161031d565b600083815260046020526040902080548390811061143857611438611dac565b60009182526020808320600160069093020182015486845260038252604080852060050180546001600160a01b0390931661010002610100600160a81b031990931692909217909155600490915290912080548490811061149b5761149b611dac565b6000918252602080832060056006909302018201805494151560ff1995861617905586835260038152604080842092830180549095169094556009909101859055600490522080547fc7a71766df0606748db2559b408ea09aa6b63a9c7fd3915f3fa327b2e01a493c9185918590811061151757611517611dac565b600091825260209091206001600690920201015460405161155492916001600160a01b0316909182526001600160a01b0316602082015260400190565b60405180910390a1505050565b6000828152600560209081526040808320548084526003835292819020600801805460ff191690558051858152841515928101929092527f5a87909bff68caaaaf0b3fd9c74eeccc928832f879315e5c6fb7a73612f26c0c9101611554565b8280548282559060005260206000209081019282156115fb579160200282015b828111156115fb5782518255916020019190600101906115e0565b506116079291506116a7565b5090565b82805482825590600052602060002090601f016020900481019282156115fb5791602002820160005b8382111561167157835183826101000a81548160ff0219169083151502179055509260200192600101602081600001049283019260010302611634565b801561169e5782816101000a81549060ff0219169055600101602081600001049283019260010302611671565b50506116079291505b5b8082111561160757600081556001016116a8565b634e487b7160e01b600052604160045260246000fd5b604051601f8201601f1916810167ffffffffffffffff811182821017156116fb576116fb6116bc565b604052919050565b600082601f83011261171457600080fd5b8135602067ffffffffffffffff821115611730576117306116bc565b8160051b61173f8282016116d2565b928352848101820192828101908785111561175957600080fd5b83870192505b848310156117785782358252918301919083019061175f565b979650505050505050565b6000806000806080858703121561179957600080fd5b843593506020850135925060408501359150606085013567ffffffffffffffff8111156117c557600080fd5b6117d187828801611703565b91505092959194509250565b6000602082840312156117ef57600080fd5b5035919050565b6000815180845260005b8181101561181c57602081850181015186830182015201611800565b506000602082860101526020601f19601f83011685010191505092915050565b8981526001600160a01b038981166020830152610120604083018190526000916118688483018c6117f6565b606085019a909a526080840198909852505093151560a08501529190931660c083015291151560e082015261010001529392505050565b8681526001600160a01b038616602082015260c0604082018190526000906118c9908301876117f6565b6060830195909552506080810192909252151560a0909101529392505050565b600082601f8301126118fa57600080fd5b813567ffffffffffffffff811115611914576119146116bc565b611927601f8201601f19166020016116d2565b81815284602083860101111561193c57600080fd5b816020850160208301376000918101602001919091529392505050565b6000806040838503121561196c57600080fd5b82359150602083013567ffffffffffffffff81111561198a57600080fd5b611996858286016118e9565b9150509250929050565b600080604083850312156119b357600080fd5b50508035926020909101359150565b600081518084526020808501945080840160005b838110156119f2578151875295820195908201906001016119d6565b509495945050505050565b600081518084526020808501945080840160005b838110156119f2578151151587529582019590820190600101611a11565b60006020808301818452808551808352604092508286019150828160051b87010184880160005b83811015611b3c57603f19898403018552815180518452878101516001600160a01b0316888501528681015161016088860181905290611a98828701826117f6565b606084810151908801526080808501519088015260a08085015115159088015260c0808501516001600160a01b03169088015260e080850151888303828a01529193509150611ae783826119c2565b925050506101008083015186830382880152611b0383826119fd565b9250505061012080830151611b1b8288018215159052565b50506101409182015194909101939093529386019390860190600101611a56565b509098975050505050505050565b60008060408385031215611b5d57600080fd5b8235915060208301358015158114611b7457600080fd5b809150509250929050565b60008060008060808587031215611b9557600080fd5b843567ffffffffffffffff80821115611bad57600080fd5b611bb9888389016118e9565b955060208701359450604087013593506060870135915080821115611bdd57600080fd5b506117d187828801611703565b634e487b7160e01b600052601160045260246000fd5b600060018201611c1257611c12611bea565b5060010190565b600181811c90821680611c2d57607f821691505b602082108103610b5b57634e487b7160e01b600052602260045260246000fd5b601f821115611c9757600081815260208120601f850160051c81016020861015611c745750805b601f850160051c820191505b81811015611c9357828155600101611c80565b5050505b505050565b815167ffffffffffffffff811115611cb657611cb66116bc565b611cca81611cc48454611c19565b84611c4d565b602080601f831160018114611cff5760008415611ce75750858301515b600019600386901b1c1916600185901b178555611c93565b600085815260208120601f198616915b82811015611d2e57888601518255948401946001909101908401611d0f565b5085821015611d4c5787850151600019600388901b60f8161c191681555b5050505050600190811b01905550565b84815283602082015260018060a01b0383166040820152608060608201526000611d8960808301846117f6565b9695505050505050565b81810381811115611da657611da6611bea565b92915050565b634e487b7160e01b600052603260045260246000fd5b6020808252602e908201527f4f6e6c79207468652070726f6a656374206f776e65722063616e20706572666f60408201526d3936903a3434b99030b1ba34b7b760911b606082015260800190565b8581526001600160a01b038516602082015260a060408201819052600090611e3a908301866117f6565b60608301949094525060800152939250505056fea264697066735822122057c7b3e4dd3a5eb26d1997eddf97e5a0e5de139367ea9560cc50a420ab43606d64736f6c63430008110033",
  "devdoc": {
    "kind": "dev",
    "methods": {},
    "version": 1
  },
  "userdoc": {
    "kind": "user",
    "methods": {},
    "version": 1
  },
  "storageLayout": {
    "storage": [
      {
        "astId": 59,
        "contract": "contracts/DesignBuildBid.sol:DesignBuildBid",
        "label": "projectCount",
        "offset": 0,
        "slot": "0",
        "type": "t_uint256"
      },
      {
        "astId": 61,
        "contract": "contracts/DesignBuildBid.sol:DesignBuildBid",
        "label": "bidCount",
        "offset": 0,
        "slot": "1",
        "type": "t_uint256"
      },
      {
        "astId": 63,
        "contract": "contracts/DesignBuildBid.sol:DesignBuildBid",
        "label": "disputeCount",
        "offset": 0,
        "slot": "2",
        "type": "t_uint256"
      },
      {
        "astId": 68,
        "contract": "contracts/DesignBuildBid.sol:DesignBuildBid",
        "label": "projects",
        "offset": 0,
        "slot": "3",
        "type": "t_mapping(t_uint256,t_struct(Project)26_storage)"
      },
      {
        "astId": 74,
        "contract": "contracts/DesignBuildBid.sol:DesignBuildBid",
        "label": "bids",
        "offset": 0,
        "slot": "4",
        "type": "t_mapping(t_uint256,t_array(t_struct(Bid)40_storage)dyn_storage)"
      },
      {
        "astId": 79,
        "contract": "contracts/DesignBuildBid.sol:DesignBuildBid",
        "label": "disputes",
        "offset": 0,
        "slot": "5",
        "type": "t_mapping(t_uint256,t_struct(Dispute)57_storage)"
      }
    ],
    "types": {
      "t_address": {
        "encoding": "inplace",
        "label": "address",
        "numberOfBytes": "20"
      },
      "t_array(t_bool)dyn_storage": {
        "base": "t_bool",
        "encoding": "dynamic_array",
        "label": "bool[]",
        "numberOfBytes": "32"
      },
      "t_array(t_struct(Bid)40_storage)dyn_storage": {
        "base": "t_struct(Bid)40_storage",
        "encoding": "dynamic_array",
        "label": "struct DesignBuildBid.Bid[]",
        "numberOfBytes": "32"
      },
      "t_array(t_uint256)dyn_storage": {
        "base": "t_uint256",
        "encoding": "dynamic_array",
        "label": "uint256[]",
        "numberOfBytes": "32"
      },
      "t_bool": {
        "encoding": "inplace",
        "label": "bool",
        "numberOfBytes": "1"
      },
      "t_mapping(t_address,t_bool)": {
        "encoding": "mapping",
        "key": "t_address",
        "label": "mapping(address => bool)",
        "numberOfBytes": "32",
        "value": "t_bool"
      },
      "t_mapping(t_uint256,t_array(t_struct(Bid)40_storage)dyn_storage)": {
        "encoding": "mapping",
        "key": "t_uint256",
        "label": "mapping(uint256 => struct DesignBuildBid.Bid[])",
        "numberOfBytes": "32",
        "value": "t_array(t_struct(Bid)40_storage)dyn_storage"
      },
      "t_mapping(t_uint256,t_struct(Dispute)57_storage)": {
        "encoding": "mapping",
        "key": "t_uint256",
        "label": "mapping(uint256 => struct DesignBuildBid.Dispute)",
        "numberOfBytes": "32",
        "value": "t_struct(Dispute)57_storage"
      },
      "t_mapping(t_uint256,t_struct(Project)26_storage)": {
        "encoding": "mapping",
        "key": "t_uint256",
        "label": "mapping(uint256 => struct DesignBuildBid.Project)",
        "numberOfBytes": "32",
        "value": "t_struct(Project)26_storage"
      },
      "t_string_storage": {
        "encoding": "bytes",
        "label": "string",
        "numberOfBytes": "32"
      },
      "t_struct(Bid)40_storage": {
        "encoding": "inplace",
        "label": "struct DesignBuildBid.Bid",
        "members": [
          {
            "astId": 28,
            "contract": "contracts/DesignBuildBid.sol:DesignBuildBid",
            "label": "projectId",
            "offset": 0,
            "slot": "0",
            "type": "t_uint256"
          },
          {
            "astId": 30,
            "contract": "contracts/DesignBuildBid.sol:DesignBuildBid",
            "label": "bidder",
            "offset": 0,
            "slot": "1",
            "type": "t_address"
          },
          {
            "astId": 32,
            "contract": "contracts/DesignBuildBid.sol:DesignBuildBid",
            "label": "bidAmount",
            "offset": 0,
            "slot": "2",
            "type": "t_uint256"
          },
          {
            "astId": 34,
            "contract": "contracts/DesignBuildBid.sol:DesignBuildBid",
            "label": "completionTime",
            "offset": 0,
            "slot": "3",
            "type": "t_uint256"
          },
          {
            "astId": 37,
            "contract": "contracts/DesignBuildBid.sol:DesignBuildBid",
            "label": "proposedMilestones",
            "offset": 0,
            "slot": "4",
            "type": "t_array(t_uint256)dyn_storage"
          },
          {
            "astId": 39,
            "contract": "contracts/DesignBuildBid.sol:DesignBuildBid",
            "label": "selected",
            "offset": 0,
            "slot": "5",
            "type": "t_bool"
          }
        ],
        "numberOfBytes": "192"
      },
      "t_struct(Dispute)57_storage": {
        "encoding": "inplace",
        "label": "struct DesignBuildBid.Dispute",
        "members": [
          {
            "astId": 42,
            "contract": "contracts/DesignBuildBid.sol:DesignBuildBid",
            "label": "projectId",
            "offset": 0,
            "slot": "0",
            "type": "t_uint256"
          },
          {
            "astId": 44,
            "contract": "contracts/DesignBuildBid.sol:DesignBuildBid",
            "label": "disputant",
            "offset": 0,
            "slot": "1",
            "type": "t_address"
          },
          {
            "astId": 46,
            "contract": "contracts/DesignBuildBid.sol:DesignBuildBid",
            "label": "reason",
            "offset": 0,
            "slot": "2",
            "type": "t_string_storage"
          },
          {
            "astId": 50,
            "contract": "contracts/DesignBuildBid.sol:DesignBuildBid",
            "label": "votes",
            "offset": 0,
            "slot": "3",
            "type": "t_mapping(t_address,t_bool)"
          },
          {
            "astId": 52,
            "contract": "contracts/DesignBuildBid.sol:DesignBuildBid",
            "label": "yesVotes",
            "offset": 0,
            "slot": "4",
            "type": "t_uint256"
          },
          {
            "astId": 54,
            "contract": "contracts/DesignBuildBid.sol:DesignBuildBid",
            "label": "noVotes",
            "offset": 0,
            "slot": "5",
            "type": "t_uint256"
          },
          {
            "astId": 56,
            "contract": "contracts/DesignBuildBid.sol:DesignBuildBid",
            "label": "resolved",
            "offset": 0,
            "slot": "6",
            "type": "t_bool"
          }
        ],
        "numberOfBytes": "224"
      },
      "t_struct(Project)26_storage": {
        "encoding": "inplace",
        "label": "struct DesignBuildBid.Project",
        "members": [
          {
            "astId": 3,
            "contract": "contracts/DesignBuildBid.sol:DesignBuildBid",
            "label": "id",
            "offset": 0,
            "slot": "0",
            "type": "t_uint256"
          },
          {
            "astId": 5,
            "contract": "contracts/DesignBuildBid.sol:DesignBuildBid",
            "label": "owner",
            "offset": 0,
            "slot": "1",
            "type": "t_address"
          },
          {
            "astId": 7,
            "contract": "contracts/DesignBuildBid.sol:DesignBuildBid",
            "label": "description",
            "offset": 0,
            "slot": "2",
            "type": "t_string_storage"
          },
          {
            "astId": 9,
            "contract": "contracts/DesignBuildBid.sol:DesignBuildBid",
            "label": "budget",
            "offset": 0,
            "slot": "3",
            "type": "t_uint256"
          },
          {
            "astId": 11,
            "contract": "contracts/DesignBuildBid.sol:DesignBuildBid",
            "label": "deadline",
            "offset": 0,
            "slot": "4",
            "type": "t_uint256"
          },
          {
            "astId": 13,
            "contract": "contracts/DesignBuildBid.sol:DesignBuildBid",
            "label": "active",
            "offset": 0,
            "slot": "5",
            "type": "t_bool"
          },
          {
            "astId": 15,
            "contract": "contracts/DesignBuildBid.sol:DesignBuildBid",
            "label": "selectedBidder",
            "offset": 1,
            "slot": "5",
            "type": "t_address"
          },
          {
            "astId": 18,
            "contract": "contracts/DesignBuildBid.sol:DesignBuildBid",
            "label": "milestones",
            "offset": 0,
            "slot": "6",
            "type": "t_array(t_uint256)dyn_storage"
          },
          {
            "astId": 21,
            "contract": "contracts/DesignBuildBid.sol:DesignBuildBid",
            "label": "milestonePaid",
            "offset": 0,
            "slot": "7",
            "type": "t_array(t_bool)dyn_storage"
          },
          {
            "astId": 23,
            "contract": "contracts/DesignBuildBid.sol:DesignBuildBid",
            "label": "disputeRaised",
            "offset": 0,
            "slot": "8",
            "type": "t_bool"
          },
          {
            "astId": 25,
            "contract": "contracts/DesignBuildBid.sol:DesignBuildBid",
            "label": "selectedBidIndex",
            "offset": 0,
            "slot": "9",
            "type": "t_uint256"
          }
        ],
        "numberOfBytes": "320"
      },
      "t_uint256": {
        "encoding": "inplace",
        "label": "uint256",
        "numberOfBytes": "32"
      }
    }
  }
}