{
  "address": "0x1cd3429d69b3717Cd93a19f38cbE18dA4E9b4366",
  "abi": [
    {
      "anonymous": false,
      "inputs": [
        {
          "indexed": false,
          "internalType": "uint256",
          "name": "projectId",
          "type": "uint256"
        },
        {
          "indexed": false,
          "internalType": "address",
          "name": "selectedBidder",
          "type": "address"
        }
      ],
      "name": "BidSelected",
      "type": "event"
    },
    {
      "anonymous": false,
      "inputs": [
        {
          "indexed": false,
          "internalType": "uint256",
          "name": "bidId",
          "type": "uint256"
        },
        {
          "indexed": false,
          "internalType": "uint256",
          "name": "projectId",
          "type": "uint256"
        },
        {
          "indexed": false,
          "internalType": "address",
          "name": "bidder",
          "type": "address"
        },
        {
          "indexed": false,
          "internalType": "uint256",
          "name": "bidAmount",
          "type": "uint256"
        },
        {
          "indexed": false,
          "internalType": "uint256",
          "name": "completionTime",
          "type": "uint256"
        }
      ],
      "name": "BidSubmitted",
      "type": "event"
    },
    {
      "anonymous": false,
      "inputs": [
        {
          "indexed": false,
          "internalType": "uint256",
          "name": "disputeId",
          "type": "uint256"
        },
        {
          "indexed": false,
          "internalType": "uint256",
          "name": "projectId",
          "type": "uint256"
        },
        {
          "indexed": false,
          "internalType": "address",
          "name": "disputant",
          "type": "address"
        },
        {
          "indexed": false,
          "internalType": "string",
          "name": "reason",
          "type": "string"
        }
      ],
      "name": "DisputeRaised",
      "type": "event"
    },
    {
      "anonymous": false,
      "inputs": [
        {
          "indexed": false,
          "internalType": "uint256",
          "name": "disputeId",
          "type": "uint256"
        },
        {
          "indexed": false,
          "internalType": "bool",
          "name": "result",
          "type": "bool"
        }
      ],
      "name": "DisputeResolved",
      "type": "event"
    },
    {
      "anonymous": false,
      "inputs": [
        {
          "indexed": false,
          "internalType": "uint256",
          "name": "projectId",
          "type": "uint256"
        },
        {
          "indexed": false,
          "internalType": "uint256",
          "name": "milestoneIndex",
          "type": "uint256"
        }
      ],
      "name": "MilestonePaid",
      "type": "event"
    },
    {
      "anonymous": false,
      "inputs": [
        {
          "indexed": false,
          "internalType": "uint256",
          "name": "projectId",
          "type": "uint256"
        },
        {
          "indexed": false,
          "internalType": "address",
          "name": "owner",
          "type": "address"
        },
        {
          "indexed": false,
          "internalType": "string",
          "name": "description",
          "type": "string"
        },
        {
          "indexed": false,
          "internalType": "uint256",
          "name": "budget",
          "type": "uint256"
        },
        {
          "indexed": false,
          "internalType": "uint256",
          "name": "deadline",
          "type": "uint256"
        }
      ],
      "name": "ProjectPosted",
      "type": "event"
    },
    {
      "inputs": [],
      "name": "bidCount",
      "outputs": [
        {
          "internalType": "uint256",
          "name": "",
          "type": "uint256"
        }
      ],
      "stateMutability": "view",
      "type": "function"
    },
    {
      "inputs": [
        {
          "internalType": "uint256",
          "name": "",
          "type": "uint256"
        },
        {
          "internalType": "uint256",
          "name": "",
          "type": "uint256"
        }
      ],
      "name": "bids",
      "outputs": [
        {
          "internalType": "uint256",
          "name": "projectId",
          "type": "uint256"
        },
        {
          "internalType": "address",
          "name": "bidder",
          "type": "address"
        },
        {
          "internalType": "uint256",
          "name": "bidAmount",
          "type": "uint256"
        },
        {
          "internalType": "uint256",
          "name": "completionTime",
          "type": "uint256"
        },
        {
          "internalType": "bool",
          "name": "selected",
          "type": "bool"
        }
      ],
      "stateMutability": "view",
      "type": "function"
    },
    {
      "inputs": [
        {
          "internalType": "uint256",
          "name": "_projectId",
          "type": "uint256"
        }
      ],
      "name": "cancelProject",
      "outputs": [],
      "stateMutability": "nonpayable",
      "type": "function"
    },
    {
      "inputs": [],
      "name": "disputeCount",
      "outputs": [
        {
          "internalType": "uint256",
          "name": "",
          "type": "uint256"
        }
      ],
      "stateMutability": "view",
      "type": "function"
    },
    {
      "inputs": [
        {
          "internalType": "uint256",
          "name": "",
          "type": "uint256"
        }
      ],
      "name": "disputes",
      "outputs": [
        {
          "internalType": "uint256",
          "name": "projectId",
          "type": "uint256"
        },
        {
          "internalType": "address",
          "name": "disputant",
          "type": "address"
        },
        {
          "internalType": "string",
          "name": "reason",
          "type": "string"
        },
        {
          "internalType": "uint256",
          "name": "yesVotes",
          "type": "uint256"
        },
        {
          "internalType": "uint256",
          "name": "noVotes",
          "type": "uint256"
        },
        {
          "internalType": "bool",
          "name": "resolved",
          "type": "bool"
        }
      ],
      "stateMutability": "view",
      "type": "function"
    },
    {
      "inputs": [
        {
          "internalType": "uint256",
          "name": "_projectId",
          "type": "uint256"
        },
        {
          "internalType": "uint256",
          "name": "_newDeadline",
          "type": "uint256"
        }
      ],
      "name": "extendDeadline",
      "outputs": [],
      "stateMutability": "nonpayable",
      "type": "function"
    },
    {
      "inputs": [],
      "name": "fetchProjects",
      "outputs": [
        {
          "components": [
            {
              "internalType": "uint256",
              "name": "id",
              "type": "uint256"
            },
            {
              "internalType": "address",
              "name": "owner",
              "type": "address"
            },
            {
              "internalType": "string",
              "name": "description",
              "type": "string"
            },
            {
              "internalType": "uint256",
              "name": "budget",
              "type": "uint256"
            },
            {
              "internalType": "uint256",
              "name": "deadline",
              "type": "uint256"
            },
            {
              "internalType": "bool",
              "name": "active",
              "type": "bool"
            },
            {
              "internalType": "address",
              "name": "selectedBidder",
              "type": "address"
            },
            {
              "internalType": "uint256[]",
              "name": "milestones",
              "type": "uint256[]"
            },
            {
              "internalType": "bool[]",
              "name": "milestonePaid",
              "type": "bool[]"
            },
            {
              "internalType": "bool",
              "name": "disputeRaised",
              "type": "bool"
            },
            {
              "internalType": "uint256",
              "name": "selectedBidIndex",
              "type": "uint256"
            }
          ],
          "internalType": "struct DesignBuildBid.Project[]",
          "name": "",
          "type": "tuple[]"
        }
      ],
      "stateMutability": "view",
      "type": "function"
    },
    {
      "inputs": [
        {
          "internalType": "uint256",
          "name": "_projectId",
          "type": "uint256"
        }
      ],
      "name": "penalizeBidder",
      "outputs": [],
      "stateMutability": "nonpayable",
      "type": "function"
    },
    {
      "inputs": [
        {
          "internalType": "string",
          "name": "_description",
          "type": "string"
        },
        {
          "internalType": "uint256",
          "name": "_budget",
          "type": "uint256"
        },
        {
          "internalType": "uint256",
          "name": "_deadline",
          "type": "uint256"
        },
        {
          "internalType": "uint256[]",
          "name": "_milestones",
          "type": "uint256[]"
        }
      ],
      "name": "postProject",
      "outputs": [],
      "stateMutability": "nonpayable",
      "type": "function"
    },
    {
      "inputs": [],
      "name": "projectCount",
      "outputs": [
        {
          "internalType": "uint256",
          "name": "",
          "type": "uint256"
        }
      ],
      "stateMutability": "view",
      "type": "function"
    },
    {
      "inputs": [
        {
          "internalType": "uint256",
          "name": "",
          "type": "uint256"
        }
      ],
      "name": "projects",
      "outputs": [
        {
          "internalType": "uint256",
          "name": "id",
          "type": "uint256"
        },
        {
          "internalType": "address",
          "name": "owner",
          "type": "address"
        },
        {
          "internalType": "string",
          "name": "description",
          "type": "string"
        },
        {
          "internalType": "uint256",
          "name": "budget",
          "type": "uint256"
        },
        {
          "internalType": "uint256",
          "name": "deadline",
          "type": "uint256"
        },
        {
          "internalType": "bool",
          "name": "active",
          "type": "bool"
        },
        {
          "internalType": "address",
          "name": "selectedBidder",
          "type": "address"
        },
        {
          "internalType": "bool",
          "name": "disputeRaised",
          "type": "bool"
        },
        {
          "internalType": "uint256",
          "name": "selectedBidIndex",
          "type": "uint256"
        }
      ],
      "stateMutability": "view",
      "type": "function"
    },
    {
      "inputs": [
        {
          "internalType": "uint256",
          "name": "_projectId",
          "type": "uint256"
        },
        {
          "internalType": "string",
          "name": "_reason",
          "type": "string"
        }
      ],
      "name": "raiseDispute",
      "outputs": [],
      "stateMutability": "nonpayable",
      "type": "function"
    },
    {
      "inputs": [
        {
          "internalType": "uint256",
          "name": "_projectId",
          "type": "uint256"
        },
        {
          "internalType": "uint256",
          "name": "_milestoneIndex",
          "type": "uint256"
        }
      ],
      "name": "releaseMilestonePayment",
      "outputs": [],
      "stateMutability": "nonpayable",
      "type": "function"
    },
    {
      "inputs": [
        {
          "internalType": "uint256",
          "name": "_projectId",
          "type": "uint256"
        },
        {
          "internalType": "uint256",
          "name": "_bidIndex",
          "type": "uint256"
        }
      ],
      "name": "selectBid",
      "outputs": [],
      "stateMutability": "nonpayable",
      "type": "function"
    },
    {
      "inputs": [
        {
          "internalType": "uint256",
          "name": "_projectId",
          "type": "uint256"
        },
        {
          "internalType": "uint256",
          "name": "_bidAmount",
          "type": "uint256"
        },
        {
          "internalType": "uint256",
          "name": "_completionTime",
          "type": "uint256"
        },
        {
          "internalType": "uint256[]",
          "name": "_proposedMilestones",
          "type": "uint256[]"
        }
      ],
      "name": "submitBid",
      "outputs": [],
      "stateMutability": "nonpayable",
      "type": "function"
    },
    {
      "inputs": [
        {
          "internalType": "uint256",
          "name": "_projectId",
          "type": "uint256"
        },
        {
          "internalType": "string",
          "name": "_description",
          "type": "string"
        },
        {
          "internalType": "uint256",
          "name": "_budget",
          "type": "uint256"
        },
        {
          "internalType": "uint256",
          "name": "_deadline",
          "type": "uint256"
        },
        {
          "internalType": "uint256[]",
          "name": "_milestones",
          "type": "uint256[]"
        }
      ],
      "name": "updateProject",
      "outputs": [],
      "stateMutability": "nonpayable",
      "type": "function"
    },
    {
      "inputs": [
        {
          "internalType": "uint256",
          "name": "_disputeId",
          "type": "uint256"
        },
        {
          "internalType": "bool",
          "name": "_vote",
          "type": "bool"
        }
      ],
      "name": "voteOnDispute",
      "outputs": [],
      "stateMutability": "nonpayable",
      "type": "function"
    },
    {
      "inputs": [
        {
          "internalType": "uint256",
          "name": "_projectId",
          "type": "uint256"
        }
      ],
      "name": "withdrawUnspentFunds",
      "outputs": [],
      "stateMutability": "nonpayable",
      "type": "function"
    },
    {
      "stateMutability": "payable",
      "type": "receive"
    }
  ],
  "transactionHash": "0xd6018baebdf3430ecbad94fe3b5a37c4f6feb99a0e4091184aca5c1b87f41e7a",
  "args": [],
  "numDeployments": 3,
  "solcInputHash": "99153f9231eec0d98f7935c96873875a",
  "bytecode": "0x608060405234801561001057600080fd5b50612b7f806100206000396000f3fe60806040526004361061010d5760003560e01c80637b3c4baa11610095578063a4f5df1211610064578063a4f5df1214610319578063b40a562714610339578063c27834d11461034f578063ca41222c1461036f578063d6f5f1201461038f57600080fd5b80637b3c4baa1461026f57806389cf8a49146102c15780638c936e65146102e3578063a28889e11461030357600080fd5b80632d1fdef6116100dc5780632d1fdef6146101b957806336fbad26146101d957806338eb16cc146101fd578063564a565d1461021d5780635aef573c1461024f57600080fd5b80630fe5f7c014610119578063107046bd1461013b57806324941147146101795780632634dfd11461019957600080fd5b3661011457005b600080fd5b34801561012557600080fd5b506101396101343660046123dc565b6103af565b005b34801561014757600080fd5b5061015b610156366004612436565b610594565b60405161017099989796959493929190612495565b60405180910390f35b34801561018557600080fd5b50610139610194366004612436565b610680565b3480156101a557600080fd5b506101396101b4366004612436565b6108f2565b3480156101c557600080fd5b506101396101d43660046124f8565b610bb7565b3480156101e557600080fd5b506101ef60005481565b604051908152602001610170565b34801561020957600080fd5b50610139610218366004612436565b610d71565b34801561022957600080fd5b5061023d610238366004612436565b611018565b6040516101709695949392919061251a565b34801561025b57600080fd5b5061013961026a3660046125d4565b6110e4565b34801561027b57600080fd5b5061028f61028a3660046124f8565b61127f565b604080519586526001600160a01b0390941660208601529284019190915260608301521515608082015260a001610170565b3480156102cd57600080fd5b506102d66112da565b6040516101709190612688565b3480156102ef57600080fd5b506101396102fe3660046124f8565b6115e0565b34801561030f57600080fd5b506101ef60025481565b34801561032557600080fd5b506101396103343660046127a3565b61193e565b34801561034557600080fd5b506101ef60015481565b34801561035b57600080fd5b5061013961036a3660046127d8565b611b28565b34801561037b57600080fd5b5061013961038a366004612859565b611d02565b34801561039b57600080fd5b506101396103aa3660046124f8565b611f55565b60008481526003602052604090206005015460ff1661040d5760405162461bcd60e51b815260206004820152601560248201527450726f6a656374206973206e6f742061637469766560581b60448201526064015b60405180910390fd5b60008481526003602052604090206006015481511461046e5760405162461bcd60e51b815260206004820152601960248201527f4d696c6573746f6e657320636f756e74206d69736d61746368000000000000006044820152606401610404565b6001805490600061047e836128da565b90915550506000848152600460208181526040808420815160c08101835289815233818501908152928101898152606082018981526080830189815260a08401899052845460018082018755958a529887902084516006909a0201988955945193880180546001600160a01b0319166001600160a01b039095169490941790935551600287015590516003860155905180519194936105239390850192910190612219565b5060a0918201516005909101805460ff19169115159190911790556001546040805191825260208201879052339082015260608101859052608081018490527fbdfcb6ed10473990c43d94b0d61dbc59818d6a21583ff27de888bc74a6f3c2ec91015b60405180910390a150505050565b60036020526000908152604090208054600182015460028301805492936001600160a01b03909216926105c6906128f3565b80601f01602080910402602001604051908101604052809291908181526020018280546105f2906128f3565b801561063f5780601f106106145761010080835404028352916020019161063f565b820191906000526020600020905b81548152906001019060200180831161062257829003601f168201915b5050505060038301546004840154600585015460088601546009909601549495929491935060ff808216936101009092046001600160a01b03169291169089565b60008181526003602052604090206001015481906001600160a01b031633146106bb5760405162461bcd60e51b815260040161040490612927565b60008281526003602052604090206005015460ff1661072f5760405162461bcd60e51b815260206004820152602a60248201527f50726f6a656374206973206e6f7420616374697665206f7220616c72656164796044820152690818dbdb5c1b195d195960b21b6064820152608401610404565b60008281526003602052604090206005015461010090046001600160a01b0316156107b05760405162461bcd60e51b815260206004820152602b60248201527f43616e6e6f742063616e63656c2061667465722061206269642068617320626560448201526a195b881cd95b1958dd195960aa1b6064820152608401610404565b6000828152600360205260408120600501805460ff191690555b6000838152600460205260409020548110156108ed57600083815260046020526040812080548390811061080057610800612975565b60009182526020808320600160069093020191909101548683526004909152604090912080546001600160a01b03909216918490811061084257610842612975565b90600052602060002090600602016002015460405160006040518083038185875af1925050503d8060008114610894576040519150601f19603f3d011682016040523d82523d6000602084013e610899565b606091505b50509050806108da5760405162461bcd60e51b815260206004820152600d60248201526c1499599d5b990819985a5b1959609a1b6044820152606401610404565b50806108e5816128da565b9150506107ca565b505050565b60008181526003602052604090206001015481906001600160a01b0316331461092d5760405162461bcd60e51b815260040161040490612927565b60008281526003602052604090206005015461010090046001600160a01b031661098e5760405162461bcd60e51b8152602060048201526012602482015271139bc8189a5919195c881cd95b1958dd195960721b6044820152606401610404565b60008281526003602052604090206004015442116109ee5760405162461bcd60e51b815260206004820152601860248201527f446561646c696e65206e6f7420796574207265616368656400000000000000006044820152606401610404565b60008281526003602052604090206006810154600790910190610a139060019061298b565b81548110610a2357610a23612975565b90600052602060002090602091828204019190069054906101000a900460ff1615610a905760405162461bcd60e51b815260206004820152601b60248201527f416c6c206d696c6573746f6e657320616c7265616479207061696400000000006044820152606401610404565b600082815260036020819052604082200154610aae90600a906129a4565b600084815260036020526040902060060180549192508291610ad29060019061298b565b81548110610ae257610ae2612975565b906000526020600020016000828254610afb919061298b565b90915550506000838152600360205260408082206001015490516001600160a01b039091169083908381818185875af1925050503d8060008114610b5b576040519150601f19603f3d011682016040523d82523d6000602084013e610b60565b606091505b5050905080610bb15760405162461bcd60e51b815260206004820152601760248201527f50656e616c7479207472616e73666572206661696c65640000000000000000006044820152606401610404565b50505050565b6000828152600360205260409020600101546001600160a01b0316331480610bfd575060008281526003602052604090206005015461010090046001600160a01b031633145b610c6f5760405162461bcd60e51b815260206004820152603d60248201527f4f6e6c792070726f6a656374206f776e6572206f722073656c6563746564206260448201527f69646465722063616e20657874656e642074686520646561646c696e650000006064820152608401610404565b6000828152600360205260409020600401548111610cec5760405162461bcd60e51b815260206004820152603460248201527f4e657720646561646c696e65206d757374206265206c61746572207468616e206044820152737468652063757272656e7420646561646c696e6560601b6064820152608401610404565b60008281526003602052604090206008015460ff1615610d5c5760405162461bcd60e51b815260206004820152602560248201527f43616e6e6f7420657874656e6420646561646c696e6520647572696e67206469604482015264737075746560d81b6064820152608401610404565b60009182526003602052604090912060040155565b60008181526003602052604090206001015481906001600160a01b03163314610dac5760405162461bcd60e51b815260040161040490612927565b60008281526003602052604090206005015460ff1615610e0e5760405162461bcd60e51b815260206004820152601760248201527f50726f6a656374206973207374696c6c206163746976650000000000000000006044820152606401610404565b60008281526003602052604090206008015460ff1615610e705760405162461bcd60e51b815260206004820181905260248201527f43616e6e6f7420776974686472617720647572696e67206120646973707574656044820152606401610404565b4760005b600084815260036020526040902060060154811015610f22576000848152600360205260409020600701805482908110610eb057610eb0612975565b90600052602060002090602091828204019190069054906101000a900460ff16610f10576000848152600360205260409020600601805482908110610ef757610ef7612975565b906000526020600020015482610f0d919061298b565b91505b80610f1a816128da565b915050610e74565b5060008111610f735760405162461bcd60e51b815260206004820152601a60248201527f4e6f20756e7370656e742066756e647320617661696c61626c650000000000006044820152606401610404565b6000838152600360205260408082206001015490516001600160a01b039091169083908381818185875af1925050503d8060008114610fce576040519150601f19603f3d011682016040523d82523d6000602084013e610fd3565b606091505b5050905080610bb15760405162461bcd60e51b815260206004820152601160248201527015da5d1a191c985dd85b0819985a5b1959607a1b6044820152606401610404565b60056020526000908152604090208054600182015460028301805492936001600160a01b039092169261104a906128f3565b80601f0160208091040260200160405190810160405280929190818152602001828054611076906128f3565b80156110c35780601f10611098576101008083540402835291602001916110c3565b820191906000526020600020905b8154815290600101906020018083116110a657829003601f168201915b50505050600483015460058401546006909401549293909290915060ff1686565b600082815260036020526040902060050154829061010090046001600160a01b0316331461116d5760405162461bcd60e51b815260206004820152603060248201527f4f6e6c79207468652073656c6563746564206269646465722063616e2070657260448201526f3337b936903a3434b99030b1ba34b7b760811b6064820152608401610404565b60008381526003602052604090206008015460ff16156111df5760405162461bcd60e51b815260206004820152602760248201527f4469737075746520616c72656164792072616973656420666f722074686973206044820152661c1c9bda9958dd60ca1b6064820152608401610404565b600280549060006111ef836128da565b90915550506002805460009081526005602052604090208481556001810180546001600160a01b0319163317905590810161122a8482612a14565b5060008481526003602052604090819020600801805460ff1916600117905560025490517f23c31c3c42269d2f1541faecb93f9273532cfaa63b3b9cb5ab733358ac289e3b9161058691879033908890612ad4565b6004602052816000526040600020818154811061129b57600080fd5b6000918252602090912060069091020180546001820154600283015460038401546005909401549295506001600160a01b039091169350919060ff1685565b60606000805467ffffffffffffffff8111156112f8576112f8612315565b60405190808252806020026020018201604052801561139c57816020015b6113896040518061016001604052806000815260200160006001600160a01b0316815260200160608152602001600081526020016000815260200160001515815260200160006001600160a01b031681526020016060815260200160608152602001600015158152602001600081525090565b8152602001906001900390816113165790505b50905060015b60005481116115da576000818152600360209081526040918290208251610160810184528154815260018201546001600160a01b03169281019290925260028101805492939192918401916113f6906128f3565b80601f0160208091040260200160405190810160405280929190818152602001828054611422906128f3565b801561146f5780601f106114445761010080835404028352916020019161146f565b820191906000526020600020905b81548152906001019060200180831161145257829003601f168201915b505050918352505060038201546020808301919091526004830154604080840191909152600584015460ff81161515606085015261010090046001600160a01b0316608084015260068401805482518185028101850190935280835260a090940193919290919083018282801561150557602002820191906000526020600020905b8154815260200190600101908083116114f1575b505050505081526020016007820180548060200260200160405190810160405280929190818152602001828054801561157d57602002820191906000526020600020906000905b825461010083900a900460ff16151581526020600192830181810494850194909303909202910180841161154c5790505b5050509183525050600882015460ff1615156020820152600990910154604090910152826115ac60018461298b565b815181106115bc576115bc612975565b602002602001018190525080806115d2906128da565b9150506113a2565b50919050565b60008281526003602052604090206001015482906001600160a01b0316331461161b5760405162461bcd60e51b815260040161040490612927565b60008381526003602052604090206005015461010090046001600160a01b03166116795760405162461bcd60e51b815260206004820152600f60248201526e139bc8189a59081cd95b1958dd1959608a1b6044820152606401610404565b600083815260036020526040902060070180548390811061169c5761169c612975565b90600052602060002090602091828204019190069054906101000a900460ff16156117025760405162461bcd60e51b8152602060048201526016602482015275135a5b195cdd1bdb9948185b1c9958591e481c185a5960521b6044820152606401610404565b60008381526003602052604090206006015482106117625760405162461bcd60e51b815260206004820152601760248201527f496e76616c6964206d696c6573746f6e6520696e6465780000000000000000006044820152606401610404565b60008381526003602052604090206008015460ff16156117d25760405162461bcd60e51b815260206004820152602560248201527f43616e6e6f742072656c65617365207061796d656e7420647572696e67206469604482015264737075746560d81b6064820152608401610404565b60008381526003602052604081206006018054849081106117f5576117f5612975565b90600052602060002001549050600160036000868152602001908152602001600020600701848154811061182b5761182b612975565b60009182526020808320818304018054941515601f90931661010090810a93840260ff909402199095169290921790915586825260039052604080822060050154905191926001600160a01b039104169083908381818185875af1925050503d80600081146118b6576040519150601f19603f3d011682016040523d82523d6000602084013e6118bb565b606091505b50509050806118fe5760405162461bcd60e51b815260206004820152600f60248201526e151c985b9cd9995c8819985a5b1959608a1b6044820152606401610404565b60408051868152602081018690527f3af368126e502abc57fe61217a2e2ffc37e0753a9bc218ab9976a49a996e4449910160405180910390a15050505050565b60008281526005602052604090206006015460ff16156119a05760405162461bcd60e51b815260206004820152601860248201527f4469737075746520616c7265616479207265736f6c76656400000000000000006044820152606401610404565b600082815260056020908152604080832033845260030190915290205460ff1615611a1c5760405162461bcd60e51b815260206004820152602660248201527f596f75206861766520616c726561647920766f746564206f6e2074686973206460448201526569737075746560d01b6064820152608401610404565b60008281526005602090815260408083203384526003019091529020805460ff191660011790558015611a70576000828152600560205260408120600401805491611a66836128da565b9190505550611a93565b6000828152600560208190526040822001805491611a8d836128da565b91905055505b6000828152600560208190526040909120908101546004909101541115611ae2576000828152600560205260409020600601805460ff19166001908117909155611ade9083906121ba565b5050565b600082815260056020819052604090912060048101549101541115611ade576000828152600560205260408120600601805460ff19166001179055611ade9083906121ba565b60008581526003602052604090206001015485906001600160a01b03163314611b635760405162461bcd60e51b815260040161040490612927565b60008681526003602052604090206005015460ff16611bbc5760405162461bcd60e51b815260206004820152601560248201527450726f6a656374206973206e6f742061637469766560581b6044820152606401610404565b60008681526003602052604090206005015461010090046001600160a01b031615611c3d5760405162461bcd60e51b815260206004820152602b60248201527f43616e6e6f74207570646174652061667465722061206269642068617320626560448201526a195b881cd95b1958dd195960aa1b6064820152608401610404565b6000868152600360205260409020600201611c588682612a14565b506000868152600360208181526040909220908101869055600481018590558351611c8b92600690920191850190612219565b50815167ffffffffffffffff811115611ca657611ca6612315565b604051908082528060200260200182016040528015611ccf578160200160208202803683370190505b50600360008881526020019081526020016000206007019080519060200190611cf9929190612264565b50505050505050565b6000815111611d5f5760405162461bcd60e51b8152602060048201526024808201527f5468657265206d757374206265206174206c65617374206f6e65206d696c6573604482015263746f6e6560e01b6064820152608401610404565b600080549080611d6e836128da565b91905055506040518061016001604052806000548152602001336001600160a01b0316815260200185815260200184815260200183815260200160011515815260200160006001600160a01b03168152602001828152602001825167ffffffffffffffff811115611de157611de1612315565b604051908082528060200260200182016040528015611e0a578160200160208202803683370190505b50815260006020808301829052604092830182905281548252600381529082902083518155908301516001820180546001600160a01b0319166001600160a01b03909216919091179055908201516002820190611e679082612a14565b50606082015160038201556080820151600482015560a082015160058201805460c08501516001600160a01b031661010002610100600160a81b0319931515939093166001600160a81b03199091161791909117905560e08201518051611ed8916006840191602090910190612219565b506101008201518051611ef5916007840191602090910190612264565b5061012082015160088201805460ff1916911515919091179055610140909101516009909101556000546040517fcac535a9bcf7cb249f2e995ffbf4e8b3f0eb137c80b35cf2c9bb39c671c5b5e091610586913390889088908890612b0b565b60008281526003602052604090206001015482906001600160a01b03163314611f905760405162461bcd60e51b815260040161040490612927565b6000838152600460205260408120805484908110611fb057611fb0612975565b60009182526020909120600160069092020101546001600160a01b03160361200f5760405162461bcd60e51b8152602060048201526012602482015271109a5908191bd95cc81b9bdd08195e1a5cdd60721b6044820152606401610404565b60008381526003602052604090206008015460ff16156120715760405162461bcd60e51b815260206004820181905260248201527f43616e6e6f742073656c6563742062696420647572696e6720646973707574656044820152606401610404565b600083815260046020526040902080548390811061209157612091612975565b60009182526020808320600160069093020182015486845260038252604080852060050180546001600160a01b0390931661010002610100600160a81b03199093169290921790915560049091529091208054849081106120f4576120f4612975565b6000918252602080832060056006909302018201805494151560ff1995861617905586835260038152604080842092830180549095169094556009909101859055600490522080547fc7a71766df0606748db2559b408ea09aa6b63a9c7fd3915f3fa327b2e01a493c9185918590811061217057612170612975565b60009182526020909120600160069092020101546040516121ad92916001600160a01b0316909182526001600160a01b0316602082015260400190565b60405180910390a1505050565b6000828152600560209081526040808320548084526003835292819020600801805460ff191690558051858152841515928101929092527f5a87909bff68caaaaf0b3fd9c74eeccc928832f879315e5c6fb7a73612f26c0c91016121ad565b828054828255906000526020600020908101928215612254579160200282015b82811115612254578251825591602001919060010190612239565b50612260929150612300565b5090565b82805482825590600052602060002090601f016020900481019282156122545791602002820160005b838211156122ca57835183826101000a81548160ff021916908315150217905550926020019260010160208160000104928301926001030261228d565b80156122f75782816101000a81549060ff02191690556001016020816000010492830192600103026122ca565b50506122609291505b5b808211156122605760008155600101612301565b634e487b7160e01b600052604160045260246000fd5b604051601f8201601f1916810167ffffffffffffffff8111828210171561235457612354612315565b604052919050565b600082601f83011261236d57600080fd5b8135602067ffffffffffffffff82111561238957612389612315565b8160051b61239882820161232b565b92835284810182019282810190878511156123b257600080fd5b83870192505b848310156123d1578235825291830191908301906123b8565b979650505050505050565b600080600080608085870312156123f257600080fd5b843593506020850135925060408501359150606085013567ffffffffffffffff81111561241e57600080fd5b61242a8782880161235c565b91505092959194509250565b60006020828403121561244857600080fd5b5035919050565b6000815180845260005b8181101561247557602081850181015186830182015201612459565b506000602082860101526020601f19601f83011685010191505092915050565b8981526001600160a01b038981166020830152610120604083018190526000916124c18483018c61244f565b606085019a909a526080840198909852505093151560a08501529190931660c083015291151560e082015261010001529392505050565b6000806040838503121561250b57600080fd5b50508035926020909101359150565b8681526001600160a01b038616602082015260c0604082018190526000906125449083018761244f565b6060830195909552506080810192909252151560a0909101529392505050565b600082601f83011261257557600080fd5b813567ffffffffffffffff81111561258f5761258f612315565b6125a2601f8201601f191660200161232b565b8181528460208386010111156125b757600080fd5b816020850160208301376000918101602001919091529392505050565b600080604083850312156125e757600080fd5b82359150602083013567ffffffffffffffff81111561260557600080fd5b61261185828601612564565b9150509250929050565b600081518084526020808501945080840160005b8381101561264b5781518752958201959082019060010161262f565b509495945050505050565b600081518084526020808501945080840160005b8381101561264b57815115158752958201959082019060010161266a565b60006020808301818452808551808352604092508286019150828160051b87010184880160005b8381101561279557603f19898403018552815180518452878101516001600160a01b03168885015286810151610160888601819052906126f18287018261244f565b606084810151908801526080808501519088015260a08085015115159088015260c0808501516001600160a01b03169088015260e080850151888303828a01529193509150612740838261261b565b92505050610100808301518683038288015261275c8382612656565b92505050610120808301516127748288018215159052565b505061014091820151949091019390935293860193908601906001016126af565b509098975050505050505050565b600080604083850312156127b657600080fd5b82359150602083013580151581146127cd57600080fd5b809150509250929050565b600080600080600060a086880312156127f057600080fd5b85359450602086013567ffffffffffffffff8082111561280f57600080fd5b61281b89838a01612564565b95506040880135945060608801359350608088013591508082111561283f57600080fd5b5061284c8882890161235c565b9150509295509295909350565b6000806000806080858703121561286f57600080fd5b843567ffffffffffffffff8082111561288757600080fd5b61289388838901612564565b9550602087013594506040870135935060608701359150808211156128b757600080fd5b5061242a8782880161235c565b634e487b7160e01b600052601160045260246000fd5b6000600182016128ec576128ec6128c4565b5060010190565b600181811c9082168061290757607f821691505b6020821081036115da57634e487b7160e01b600052602260045260246000fd5b6020808252602e908201527f4f6e6c79207468652070726f6a656374206f776e65722063616e20706572666f60408201526d3936903a3434b99030b1ba34b7b760911b606082015260800190565b634e487b7160e01b600052603260045260246000fd5b8181038181111561299e5761299e6128c4565b92915050565b6000826129c157634e487b7160e01b600052601260045260246000fd5b500490565b601f8211156108ed57600081815260208120601f850160051c810160208610156129ed5750805b601f850160051c820191505b81811015612a0c578281556001016129f9565b505050505050565b815167ffffffffffffffff811115612a2e57612a2e612315565b612a4281612a3c84546128f3565b846129c6565b602080601f831160018114612a775760008415612a5f5750858301515b600019600386901b1c1916600185901b178555612a0c565b600085815260208120601f198616915b82811015612aa657888601518255948401946001909101908401612a87565b5085821015612ac45787850151600019600388901b60f8161c191681555b5050505050600190811b01905550565b84815283602082015260018060a01b0383166040820152608060608201526000612b01608083018461244f565b9695505050505050565b8581526001600160a01b038516602082015260a060408201819052600090612b359083018661244f565b60608301949094525060800152939250505056fea2646970667358221220873162e0738ccca0086e30b133a31ea6878c7493ed13bf87fb1d9057a6cc75db64736f6c63430008110033",
  "devdoc": {
    "kind": "dev",
    "methods": {},
    "version": 1
  },
  "userdoc": {
    "kind": "user",
    "methods": {},
    "version": 1
  },
  "storageLayout": {
    "storage": [
      {
        "astId": 59,
        "contract": "contracts/DesignBuildBid.sol:DesignBuildBid",
        "label": "projectCount",
        "offset": 0,
        "slot": "0",
        "type": "t_uint256"
      },
      {
        "astId": 61,
        "contract": "contracts/DesignBuildBid.sol:DesignBuildBid",
        "label": "bidCount",
        "offset": 0,
        "slot": "1",
        "type": "t_uint256"
      },
      {
        "astId": 63,
        "contract": "contracts/DesignBuildBid.sol:DesignBuildBid",
        "label": "disputeCount",
        "offset": 0,
        "slot": "2",
        "type": "t_uint256"
      },
      {
        "astId": 68,
        "contract": "contracts/DesignBuildBid.sol:DesignBuildBid",
        "label": "projects",
        "offset": 0,
        "slot": "3",
        "type": "t_mapping(t_uint256,t_struct(Project)26_storage)"
      },
      {
        "astId": 74,
        "contract": "contracts/DesignBuildBid.sol:DesignBuildBid",
        "label": "bids",
        "offset": 0,
        "slot": "4",
        "type": "t_mapping(t_uint256,t_array(t_struct(Bid)40_storage)dyn_storage)"
      },
      {
        "astId": 79,
        "contract": "contracts/DesignBuildBid.sol:DesignBuildBid",
        "label": "disputes",
        "offset": 0,
        "slot": "5",
        "type": "t_mapping(t_uint256,t_struct(Dispute)57_storage)"
      }
    ],
    "types": {
      "t_address": {
        "encoding": "inplace",
        "label": "address",
        "numberOfBytes": "20"
      },
      "t_array(t_bool)dyn_storage": {
        "base": "t_bool",
        "encoding": "dynamic_array",
        "label": "bool[]",
        "numberOfBytes": "32"
      },
      "t_array(t_struct(Bid)40_storage)dyn_storage": {
        "base": "t_struct(Bid)40_storage",
        "encoding": "dynamic_array",
        "label": "struct DesignBuildBid.Bid[]",
        "numberOfBytes": "32"
      },
      "t_array(t_uint256)dyn_storage": {
        "base": "t_uint256",
        "encoding": "dynamic_array",
        "label": "uint256[]",
        "numberOfBytes": "32"
      },
      "t_bool": {
        "encoding": "inplace",
        "label": "bool",
        "numberOfBytes": "1"
      },
      "t_mapping(t_address,t_bool)": {
        "encoding": "mapping",
        "key": "t_address",
        "label": "mapping(address => bool)",
        "numberOfBytes": "32",
        "value": "t_bool"
      },
      "t_mapping(t_uint256,t_array(t_struct(Bid)40_storage)dyn_storage)": {
        "encoding": "mapping",
        "key": "t_uint256",
        "label": "mapping(uint256 => struct DesignBuildBid.Bid[])",
        "numberOfBytes": "32",
        "value": "t_array(t_struct(Bid)40_storage)dyn_storage"
      },
      "t_mapping(t_uint256,t_struct(Dispute)57_storage)": {
        "encoding": "mapping",
        "key": "t_uint256",
        "label": "mapping(uint256 => struct DesignBuildBid.Dispute)",
        "numberOfBytes": "32",
        "value": "t_struct(Dispute)57_storage"
      },
      "t_mapping(t_uint256,t_struct(Project)26_storage)": {
        "encoding": "mapping",
        "key": "t_uint256",
        "label": "mapping(uint256 => struct DesignBuildBid.Project)",
        "numberOfBytes": "32",
        "value": "t_struct(Project)26_storage"
      },
      "t_string_storage": {
        "encoding": "bytes",
        "label": "string",
        "numberOfBytes": "32"
      },
      "t_struct(Bid)40_storage": {
        "encoding": "inplace",
        "label": "struct DesignBuildBid.Bid",
        "members": [
          {
            "astId": 28,
            "contract": "contracts/DesignBuildBid.sol:DesignBuildBid",
            "label": "projectId",
            "offset": 0,
            "slot": "0",
            "type": "t_uint256"
          },
          {
            "astId": 30,
            "contract": "contracts/DesignBuildBid.sol:DesignBuildBid",
            "label": "bidder",
            "offset": 0,
            "slot": "1",
            "type": "t_address"
          },
          {
            "astId": 32,
            "contract": "contracts/DesignBuildBid.sol:DesignBuildBid",
            "label": "bidAmount",
            "offset": 0,
            "slot": "2",
            "type": "t_uint256"
          },
          {
            "astId": 34,
            "contract": "contracts/DesignBuildBid.sol:DesignBuildBid",
            "label": "completionTime",
            "offset": 0,
            "slot": "3",
            "type": "t_uint256"
          },
          {
            "astId": 37,
            "contract": "contracts/DesignBuildBid.sol:DesignBuildBid",
            "label": "proposedMilestones",
            "offset": 0,
            "slot": "4",
            "type": "t_array(t_uint256)dyn_storage"
          },
          {
            "astId": 39,
            "contract": "contracts/DesignBuildBid.sol:DesignBuildBid",
            "label": "selected",
            "offset": 0,
            "slot": "5",
            "type": "t_bool"
          }
        ],
        "numberOfBytes": "192"
      },
      "t_struct(Dispute)57_storage": {
        "encoding": "inplace",
        "label": "struct DesignBuildBid.Dispute",
        "members": [
          {
            "astId": 42,
            "contract": "contracts/DesignBuildBid.sol:DesignBuildBid",
            "label": "projectId",
            "offset": 0,
            "slot": "0",
            "type": "t_uint256"
          },
          {
            "astId": 44,
            "contract": "contracts/DesignBuildBid.sol:DesignBuildBid",
            "label": "disputant",
            "offset": 0,
            "slot": "1",
            "type": "t_address"
          },
          {
            "astId": 46,
            "contract": "contracts/DesignBuildBid.sol:DesignBuildBid",
            "label": "reason",
            "offset": 0,
            "slot": "2",
            "type": "t_string_storage"
          },
          {
            "astId": 50,
            "contract": "contracts/DesignBuildBid.sol:DesignBuildBid",
            "label": "votes",
            "offset": 0,
            "slot": "3",
            "type": "t_mapping(t_address,t_bool)"
          },
          {
            "astId": 52,
            "contract": "contracts/DesignBuildBid.sol:DesignBuildBid",
            "label": "yesVotes",
            "offset": 0,
            "slot": "4",
            "type": "t_uint256"
          },
          {
            "astId": 54,
            "contract": "contracts/DesignBuildBid.sol:DesignBuildBid",
            "label": "noVotes",
            "offset": 0,
            "slot": "5",
            "type": "t_uint256"
          },
          {
            "astId": 56,
            "contract": "contracts/DesignBuildBid.sol:DesignBuildBid",
            "label": "resolved",
            "offset": 0,
            "slot": "6",
            "type": "t_bool"
          }
        ],
        "numberOfBytes": "224"
      },
      "t_struct(Project)26_storage": {
        "encoding": "inplace",
        "label": "struct DesignBuildBid.Project",
        "members": [
          {
            "astId": 3,
            "contract": "contracts/DesignBuildBid.sol:DesignBuildBid",
            "label": "id",
            "offset": 0,
            "slot": "0",
            "type": "t_uint256"
          },
          {
            "astId": 5,
            "contract": "contracts/DesignBuildBid.sol:DesignBuildBid",
            "label": "owner",
            "offset": 0,
            "slot": "1",
            "type": "t_address"
          },
          {
            "astId": 7,
            "contract": "contracts/DesignBuildBid.sol:DesignBuildBid",
            "label": "description",
            "offset": 0,
            "slot": "2",
            "type": "t_string_storage"
          },
          {
            "astId": 9,
            "contract": "contracts/DesignBuildBid.sol:DesignBuildBid",
            "label": "budget",
            "offset": 0,
            "slot": "3",
            "type": "t_uint256"
          },
          {
            "astId": 11,
            "contract": "contracts/DesignBuildBid.sol:DesignBuildBid",
            "label": "deadline",
            "offset": 0,
            "slot": "4",
            "type": "t_uint256"
          },
          {
            "astId": 13,
            "contract": "contracts/DesignBuildBid.sol:DesignBuildBid",
            "label": "active",
            "offset": 0,
            "slot": "5",
            "type": "t_bool"
          },
          {
            "astId": 15,
            "contract": "contracts/DesignBuildBid.sol:DesignBuildBid",
            "label": "selectedBidder",
            "offset": 1,
            "slot": "5",
            "type": "t_address"
          },
          {
            "astId": 18,
            "contract": "contracts/DesignBuildBid.sol:DesignBuildBid",
            "label": "milestones",
            "offset": 0,
            "slot": "6",
            "type": "t_array(t_uint256)dyn_storage"
          },
          {
            "astId": 21,
            "contract": "contracts/DesignBuildBid.sol:DesignBuildBid",
            "label": "milestonePaid",
            "offset": 0,
            "slot": "7",
            "type": "t_array(t_bool)dyn_storage"
          },
          {
            "astId": 23,
            "contract": "contracts/DesignBuildBid.sol:DesignBuildBid",
            "label": "disputeRaised",
            "offset": 0,
            "slot": "8",
            "type": "t_bool"
          },
          {
            "astId": 25,
            "contract": "contracts/DesignBuildBid.sol:DesignBuildBid",
            "label": "selectedBidIndex",
            "offset": 0,
            "slot": "9",
            "type": "t_uint256"
          }
        ],
        "numberOfBytes": "320"
      },
      "t_uint256": {
        "encoding": "inplace",
        "label": "uint256",
        "numberOfBytes": "32"
      }
    }
  }
}